:020000040800F2
:10000000FCFF00208D1800008518000085180000F6
:10001000851800008518000085180000851800006C
:10002000851800008518000085180000851800005C
:10003000851800008518000085180000851800004C
:10004000851800008518000085180000851800003C
:10005000851800008518000085180000851800002C
:10006000851800008518000085180000851800001C
:10007000851800008518000085180000851800000C
:1000800085180000851800008518000085180000FC
:1000900085180000851800008518000085180000EC
:1000A00085180000851800008518000085180000DC
:1000B00085180000851800008518000085180000CC
:1000C00085180000851800008518000085180000BC
:1000D00085180000851800008518000085180000AC
:1000E000851800008518000085180000851800009C
:1000F000851800008518000085180000851800008C
:10010000851800008518000085180000851800007B
:10011000851800008518000085180000851800006B
:10012000851800008518000085180000851800005B
:10013000851800008518000085180000851800004B
:10014000851800008518000085180000851800003B
:1001500083B0CDF800E000F0FF031A09104603F069
:100160000F02134614E0194A02921FE0184A029245
:100170001CE0184A029219E0174A029216E0174A48
:10018000029213E0164A029210E0164A02920DE023
:100190000028E8D00128E9D00228EAD00328EBD0D3
:1001A0000428ECD00528EDD00628EED0012212B2AA
:1001B0009A40ADF8042002980A46BDF8041000F0F9
:1001C00085FADDF800E003B0704700BF0008014089
:1001D000000C0140001001400014014000180140D3
:1001E000001C01400020014001480068704700BF2A
:1001F0002801002081B0194900EA010108460022C7
:100200000EE0042022E0082020E010201EE0202044
:100210001CE040201AE0802018E040F2001015E0B9
:100220000F498842EDD00F498842ECD00E498842F0
:10023000EBD00E498842EAD00D498842E9D00D49F9
:100240008842E8D00C498842E7D010460B4909683B
:1002500041EA000209490A6001B0704700FCFFFF53
:1002600000080140000C0140001001400014014052
:1002700000180140001C01400020014018100240FD
:1002800082B0CDF800E0034619460191FFF7ACFFBC
:1002900040F2E83100FB01F201990A601F49097838
:1002A000C1F30311C8B21E4909180878C0B21A1D5B
:1002B0001968C140116019490988C1F3022188B247
:1002C000174909180878C0B203F20802191D096815
:1002D000C140116011490988C1F3C22188B2104997
:1002E00009180878C0B203F20C02191D0968C14050
:1002F00011600A490988C1F3813188B20949091896
:100300000978C8B203F2100203F20C010968B1FBCC
:10031000F0F11160DDF800E002B070470410024017
:10032000C81B0000F40B000081B0CDF800E00122F2
:1003300052B23E490A6000F268010B686FF000613A
:1003400003EA0102144603F00061C90E0B4602F0F5
:100350000041B1F1004F02D135490A6801E0354949
:100360000A6804F47021090C0E464FF6FF7104EA86
:1003700001010D4604F44011B1F5401F0DD16FF09D
:10038000706102EA01010E462A490A686FF0706145
:100390000A4028490A60324616E004F48011B1F59B
:1003A000801F09D14FF00301B140C94302EA0101A6
:1003B00041F070610A4607E0610D090105FA01F19B
:1003C000C9430A4042F070622BB1610D090105FA80
:1003D00001F10A43FFE704F00041B1F1004F02D1FF
:1003E00013490A6001E013490A6040F2000A81469D
:1003F0004FEA8A0109EB01010968B1F1FF3F10D012
:1004000009F134014FEA8A03C91809680A4609EB61
:100410000301096808461146FFF79AFE0AF1010A2E
:10042000E6E7DDF800E001B0704700BF000342429C
:100430001C0001400400014081B00268C2F3401179
:1004400001B9FAE7011D096888B201B07047FFFFE2
:1004500081B00168C1F3801001B0704781B00168BC
:10046000C1F3401001B0704789B0CDF800E0834679
:1004700098B28C46BDF824100A9E04ACADF8041066
:10048000ADF808002046FFF7FBFEBDF80800BDF8F8
:100490000410644CA34512D101256DB2624C256055
:1004A000624D634C2560634D634C2560634D644C25
:1004B0002560644D644C2560079C039456E0634CB2
:1004C000A34512D101256DB2614C2560614D584C98
:1004D0002560614D584C2560604D594C2560604D3C
:1004E000594C2560069C039440E05E4CA34512D114
:1004F00001256DB25C4C25605C4D4D4C25605C4D1A
:100500004D4C25605B4D4E4C25605B4D4E4C25603F
:10051000069C03942AE0594CA34512D101256DB2E3
:10052000574C2560574D424C2560574D424C256035
:10053000564D434C2560564D434C2560069C039414
:1005400014E0544CA34511D101256DB2524C2560E5
:10055000524D374C2560524D374C2560514D384C2B
:100560002560514D384C2560069C0394ADF804106D
:10057000ADF808003046FFF7D7FEBDF80800BDF81B
:1005800004100BF1100500242C600BF110052C68F1
:100590000C432C600BF10C0500242C6018B140F4C6
:1005A000806080B2FFE70BF10C052C6804432C60DF
:1005B0000BF10C060125346865F34D3434600BF102
:1005C0000C060125346865F3C30434600BF10C0696
:1005D0000125346865F3820434600BF114050024AE
:1005E0002C60039D192465434FEA8C04B5FBF4F796
:1005F0006424B7FBF4F42601350964246C433C1BE6
:10060000240104F232056424B5FBF4F404F00F0471
:1006100046EA04040BF10805A4B22C60DDF800E002
:1006200009B0704700380140380342428909000090
:100630002C0100200D0A000030010020C10900003B
:1006400034010020D9090000380100200044004096
:10065000C4034242A5090000F10800000909000096
:100660003909000000480040C80342425109000017
:1006700021090000D9080000C1080000004C00401A
:10068000CC0342426D090000090B0000F10A000092
:10069000210B000000500040D0034242F10900004D
:1006A000610B0000D90A00004D0A000081B0ADF8CE
:1006B00000100146BDF800000B68C3F3C01202B978
:1006C000FAE70A1D106001B07047FFFF81B0CDF856
:1006D00000E08CB21546774B00EA03031E4618462D
:1006E000FFF788FDB4F1FF0F0CD1734B9D4203D18E
:1006F0004FF033333360D9E0422D03D14FF0443310
:100700003360D3E04FF6FF739C4214D16A4B9D4295
:1007100007D14FF033333360341D4FF03333236050
:10072000C4E0422D07D14FF044333360341D4FF005
:1007300044332360BAE00021002005F001030BB12F
:1007400000211DE005F0020333B105F4C0730BB1C5
:10075000082100E0042113E005F0040333B105F0A3
:1007600020030BB1042100E0002109E005F008039B
:1007700033B105F020030BB10C2100E00821FFE7A5
:100780004E4B05EA03030BB1032009E005F40073A7
:100790000BB1022004E005F480630BB10120FFE7F8
:1007A00005F00C030BB10143FFE704F0FF039BB21C
:1007B000002B3BD0376800201FFA84F832462E46C3
:1007C00008282CD24FF0010303FA00F408EA0403CE
:1007D000A34222D185004FF00F03AB40DB4307EA71
:1007E000030401FA05F344EA03031D4606F481738A
:1007F000B3F5817F05D102F214044FF00103834069
:10080000236006F08203822B05D102F210044FF020
:100810000103834023602F46FFE7401CD0E71760A9
:100820001FFA88F00F463146164602E00F46294669
:10083000A0B2B0F1FF0F39D9331DD3F800800022E8
:10084000082A30D202F208044FF0010303FA04F43C
:1008500000EA0403A34224D195004FF00F03AB40FC
:10086000DB4308EA030807FA05F348EA030801F442
:100870008173B3F5817F07D106F2140502F20804F3
:100880004FF00103A3402B6001F08203822B07D1BC
:1008900006F2100502F208044FF00103A3402B609A
:1008A000FFE7521CCCE7331DC3F80080DDF800E001
:1008B00001B0704700FCFFFF1400080000080800AA
:1008C00081B0CDF800E00348FFF7C2FDDDF800E09D
:1008D00001B070470048004081B0CDF800E0034807
:1008E000FFF7BCFDDDF800E001B0704700480040B4
:1008F00081B0CDF800E00348FFF79EFDDDF800E091
:1009000001B070470044004081B0CDF800E00348DA
:10091000FFF7A4FDDDF800E001B07047004400409F
:1009200081B0CDF800E00348FFF786FDDDF800E078
:1009300001B070470048004081B0CDF800E00348A6
:10094000FFF786FDDDF800E001B07047004400408D
:1009500081B0CDF800E081B20348FFF7A7FEDDF8D3
:1009600000E001B0704700BF0048004081B0CDF802
:1009700000E081B20348FFF799FEDDF800E001B026
:10098000704700BF004C004081B0CDF800E081B25C
:100990000348FFF78BFEDDF800E001B0704700BFB1
:1009A0000038014081B0CDF800E081B20348FFF784
:1009B0007DFEDDF800E001B0704700BF004400405C
:1009C00081B0CDF800E00348FFF748FDDDF800E016
:1009D00001B070470038014081B0CDF800E0034815
:1009E000FFF736FDDDF800E001B070470038014048
:1009F00081B0CDF800E081B20348FFF757FEDDF883
:100A000000E001B0704700BF0050004081B0CDF859
:100A100000E00348FFF710FDDDF800E001B070478B
:100A20000038014081B0CDF800E0019D2C4610B4A3
:100A300008B493B28AB201460348FFF715FD02B02D
:100A4000DDF800E001B070470038014081B0CDF81A
:100A500000E00348FFF7FCFCDDF800E001B0704760
:100A60000050004081B0CDF800E0019D2C4610B44C
:100A700008B493B28AB201460348FFF7F5FC02B00E
:100A8000DDF800E001B070470048004081B039282F
:100A900003D8302801D3012100E00021C8B201B001
:100AA0007047FFFF81B0CDF800E04FF0420289B2FD
:100AB000FFF70CFEDDF800E001B0704781B0CDF823
:100AC00000E0044A89B2FFF701FEDDF800E001B062
:100AD000704700BF1400080081B0CDF800E0034863
:100AE000FFF7BCFCDDF800E001B0704700500040AB
:100AF00081B0CDF800E00348FFF7B0FCDDF800E07E
:100B000001B07047004C004081B0CDF800E00348D0
:100B1000FFF792FCDDF800E001B07047004C0040A8
:100B200081B0CDF800E00348FFF792FCDDF800E06B
:100B300001B07047004C004081B0CDF800E0019D4D
:100B40002C4610B408B493B28AB201460348FFF7AA
:100B50008BFC02B0DDF800E001B0704700440040BB
:100B600081B0CDF800E00348FFF766FCDDF800E057
:100B700001B070470050004081B0CDF800E0034C58
:100B80002468A047DDF800E001B070473C01002078
:100B900081B05A2805D8412804D340F02001C8B2BA
:100BA000FFE7FFE701B0704781B05A2803D841281A
:100BB00001D3012100E00021C8B201B07047FFFF5E
:100BC000026806490A60011D0A6805490A6000F2C8
:100BD00008010A6803490A60704700BF3C01002011
:100BE000400100204401002001490860704700BF17
:100BF0009C8121420204060841F6FF27C0F2B70794
:100C00007F1EFDD100BF00BF00BF00BF00BF704707
:100C100000F230011C310A6803490A60011D0A68AC
:100C200002490A60704700BF480100204C010020C3
:100C300081B0CDF800E0044C2468A047C0B2DDF8D4
:100C400000E001B0704700BF4401002012490A884B
:100C5000124989180870104909884A1C0E490A80EF
:100C60000F490978B1B90C4909884A1E92B20B495B
:100C7000891809783E290DD1012209490A700649CF
:100C800009884A1E04490A8003490A8803498A18C8
:100C900000211170704700BF500100205301002057
:100CA0005201002081B0CDF800E0044C2468A04738
:100CB000C0B2DDF800E001B0704700BF4001002085
:100CC00081B0CDF800E00178CCB2A0B2034C24682A
:100CD000A0470020DDF800E001B0704724010020AB
:100CE00081B0CDF800E0C2B2662A03D8612A01D3F0
:100CF000012100E00021C8B2462A03D8412A01D3CD
:100D0000012100E0002140EA0101CBB2D0B2FFF79F
:100D1000BDFE43EA0001C8B2DDF800E001B0704753
:100D200081B0202806D00D2802D8092800D301E080
:100D3000002100E00121C8B201B070470A46014617
:100D400040F2000440F2000086B21046A3B2621CDA
:100D500095B2CC18B3B2721C96B2C2181278227037
:100D600022780AB1ACB2F1E77047FFFF0149086091
:100D7000704700BF9881214201490860704700BF59
:100D8000A801224201490860704700BFAC0122421D
:100D900001490860704700BF88012242014908608C
:100DA000704700BFB481224201490860704700BF0C
:100DB000A881224201490860704700BFA4812242F5
:100DC00001490860704700BFB00122420149086034
:100DD000704700BF8001214201490860704700BF91
:100DE0009001214281B0CDF800E00B4D00F20C01E2
:100DF0000C6800F208010B68011D0A6801680846CA
:100E000091B29AB2A3B220B4FFF72CFE01B0002039
:100E1000DDF800E001B07047F019000081B0CDF8B6
:100E200000E00B4D00F20C010C6800F208010B68A9
:100E3000011D0A680168084691B29AB2A3B220B4B3
:100E4000FFF77AFE01B00020DDF800E001B0704746
:100E50005C1A000081B0CDF800E0A9E0012905D1BD
:100E600040F210016548FFF71DFE04E040F210015A
:100E70006248FFF723FEBBE0012905D140F20401DF
:100E80005F48FFF70FFE04E040F204015C48FFF703
:100E900015FEADE0012905D142F200015948FFF7E6
:100EA00001FE04E042F200015648FFF707FE9FE012
:100EB000012905D140F200415148FFF7F3FD04E05C
:100EC00040F200414E48FFF7F9FD91E0012905D1BC
:100ED00040F600014A48FFF7E5FD04E040F6000156
:100EE0004748FFF7EBFD83E0012905D141F20001FE
:100EF0004348FFF7D7FD04E041F200014048FFF707
:100F0000DDFD75E0012905D140F201013B48FFF705
:100F1000C9FD04E040F201013848FFF7CFFD67E06A
:100F2000012905D140F200413648FFF7BBFD04E03E
:100F300040F200413348FFF7C1FD59E0012905D1D6
:100F400040F200212F48FFF7ADFD04E040F2002100
:100F50002C48FFF7B3FD4BE0012905D140F2001109
:100F60002848FFF79FFD04E040F200112548FFF7F5
:100F7000A5FD3DE0012905D140F240012248FFF7DF
:100F800091FD04E040F240011F48FFF797FD2FE07C
:100F9000012905D140F280011B48FFF783FD04E0E1
:100FA00040F280011848FFF789FD21E0012020E090
:100FB00000283FF453AF01283FF45EAF02283FF40E
:100FC00069AF03283FF474AF04283FF47FAF0528CE
:100FD0003FF48AAF06283FF495AF0728A0D0082831
:100FE000ACD00928B8D00A28C4D00B28D0D0DDE76F
:100FF0000020DDF800E001B0704700BF00080140AC
:101000000010014000140140000C014081B0CDF8F7
:1010100000E0A9E0012905D140F220016548FFF771
:1010200041FD04E040F220016248FFF747FDBBE0CC
:10103000012905D140F208015F48FFF733FD04E0C4
:1010400040F208015C48FFF739FDADE0012905D108
:1010500044F200015948FFF725FD04E044F2000185
:101060005648FFF72BFD9FE0012905D140F20041D2
:101070005148FFF717FD04E040F200414E48FFF7EA
:101080001DFD91E0012905D140F600014A48FFF716
:1010900009FD04E040F600014748FFF70FFD83E03B
:1010A000012905D141F200014348FFF7FBFC04E0B0
:1010B00041F200014048FFF701FD75E0012905D12B
:1010C00041F200013D48FFF7EDFC04E041F2000170
:1010D0003A48FFF7F3FC67E0012905D140F600012B
:1010E0003648FFF7DFFC04E040F600013348FFF725
:1010F000E5FC59E0012905D140F240012F48FFF7F6
:10110000D1FC04E040F240012C48FFF7D7FC4BE053
:10111000012905D140F220012848FFF7C3FC04E073
:1011200040F220012548FFF7C9FC3DE0012905D127
:1011300040F240012248FFF7B5FC04E040F24001D4
:101140001F48FFF7BBFC2FE0012905D140F28001C9
:101150001B48FFF7A7FC04E040F280011848FFF7A6
:10116000ADFC21E0012020E000283FF453AF01282E
:101170003FF45EAF02283FF469AF03283FF474AF39
:1011800004283FF47FAF05283FF48AAF06283FF4D8
:1011900095AF0728A0D00828ACD00928B8D00A28D5
:1011A000C4D00B28D0D0DDE70020DDF800E001B08E
:1011B000704700BF000801400010014000140140CA
:1011C000000C014081B0CDF800E0094902B440F2C2
:1011D000000340F2000240F20001FFF723FC01B0DF
:1011E000044A05490A600020DDF800E001B07047BC
:1011F000C81A0000890900002401002081B0CDF840
:1012000000E0094902B440F2000340F2000240F25B
:101210000001FFF791FC01B0044A05490A60002073
:10122000DDF800E001B070475C1A0000A50900007D
:101230002401002081B0CDF800E0094902B440F259
:10124000000340F2000240F20001FFF70BFC01B086
:10125000044A05490A600020DDF800E001B070474B
:10126000F0190000510900002401002081B0CDF8E0
:1012700000E0094902B440F2000340F2000240F2EB
:101280000001FFF759FC01B0044A05490A6000203B
:10129000DDF800E001B070475C1A0000A50900000D
:1012A0002401002001490860704700BFA08122424C
:1012B00001490860704700BFAC0122420149086043
:1012C000704700BFB001224201490860704700BF6B
:1012D000B881224201490860704700BFA80122423C
:1012E00001490860704700BF9881224201490860A7
:1012F000704700BF9481224201490860704700BFD7
:10130000B081224201490860704700BFB08122428B
:1013100001490860704700BF9401214201490860FB
:10132000704700BF9C81214201490860704700BF9F
:101330009881214201490860704700BF8C01224218
:1013400081B0CDF800E00020012806D0FFF770FC46
:1013500018B1FFF7A7FCFFF779FCDDF800E001B05A
:101360007047FFFF81B0CDF800E00849FFF7E6FCC9
:10137000002207490A70002206490A800022034918
:101380000A70DDF800E001B0704700BF5301002093
:10139000520100205001002001480078704700BF32
:1013A0005201002081B0CDF800E05FFA81F95FFAC8
:1013B00082FA0FE05FFA8AF15FFA89F0FFF74AFDDF
:1013C0000DE05FFA8AF15FFA89F0FFF71FFE06E091
:1013D000012004E00028EDD00128F2D0F8E7DDF884
:1013E00000E001B07047FFFF81B00A4681B20020E3
:1013F0008DB21146052805D20B1820221A70401C08
:10140000C0B2F7E70B1800221A70401EC0B20C18C9
:101410000A23B5FBF3F203FB125292B23032227070
:101420000A22B5FBF2F292B295B202B902E0401E76
:10143000C0B2ECE701B0704781B00B4601461846D8
:101440000D4614B2531E1AB224B103782B706D1CD2
:10145000401CF6E7084601B07047FFFF82B0CDF8A8
:1014600000E00023002204462178C8B2FFF758FCB0
:1014700008B1641CF8E721782D2905D1591C88B2E0
:10148000611C84B2084606E021782B2901D1601C3A
:1014900000E020469CB295B20246411C0E461178EF
:1014A000ADF80410BDF80400FFF71AFC10B3BDF846
:1014B0000400FFF779FB28B1BDF80400FFF768FBD3
:1014C000ADF80400BDF80400FFF7E0FA28B1BDF85C
:1014D00004103039ADF8041004E0BDF80410573999
:1014E000ADF804102A0192B29DF8041051188DB283
:1014F0003046D1E714B1694208B200E028B2DDF805
:1015000000E002B07047FFFF83B0CDF800E040F28A
:101510000003002211490A80002211490A700022AA
:1015200010490A709AB28118097869B1811809784E
:101530000190ADF80820C8B2FFF71EFBBDF80820E7
:101540000198521C92B2EEE70D20FFF715FB0A201E
:10155000FFF712FBDDF800E003B0704750010020F8
:10156000520100205301002083B0CDF800E0024674
:1015700010460D228DF808200A228DF809201FE060
:10158000FFF79EFB23E002782AB10190FFF798FB5A
:101590000198401CF7E71AE002782AB10190FFF7A2
:1015A0008FFB0198401CF7E702AA1046FFF788FB63
:1015B0000DF109021046FFF783FB08E0062007E063
:1015C0000029DDD00129DED00229E5D0F6E7002090
:1015D000DDF800E003B0704781B0CDF800E00346CD
:1015E0000846FFF7EDFA1846FFF712FB00230A4AF8
:1015F00013800023094A13700120094C2468A04776
:10160000FFF7FAFAFFF7F8FAFFF7F6FAFFF7F4FA3E
:10161000DDF800E001B070475001002052010020C9
:101620004C01002081B0CDF800E009E00846FFF74A
:10163000D9FB0AE00846FFF7F1FB06E0012004E0D1
:101640000028F3D00128F5D0F8E7DDF800E001B07C
:101650007047FFFF81B0CDF800E011E00846FFF7CA
:10166000E9FD16E00846FFF701FE12E00846FFF725
:10167000A9FD0EE00846FFF7C1FD0AE0012008E0E1
:101680000028EBD00128EDD02028EFD03028F1D071
:10169000F4E7DDF800E001B07047FFFF81B01CF80F
:1016A000019B0BF8019BBBEB0A0FF8D101B070470F
:1016B00081B01548006840F00101134801601349EA
:1016C0001348016010480168124801400E4801604B
:1016D0000D4801686FF4802001400B4801600C4800
:1016E00001686FF4FE000140094801600648016886
:1016F0006FF0A0500140044801604FF0000106481F
:10170000016001B0704700BF001002400000FFF010
:1017100004100240FFFFF6FE2C10024081B04FF093
:1017200000094FF0000CBDEB0A0F04DCBDEB0B0F02
:1017300001DBD446EA464BF8049BBBEB0A0FFAD117
:10174000BCEB0A0F05DDE246D9F800B00BF1040B43
:10175000F1E701B07047FFFF81B0CDF800E0074925
:101760000748FFF739FF0748FFF7CEFE064802217A
:10177000FFF7FAFEDDF800E001B07047D81B00006B
:10178000341B0000E41B000000000020FFFFFFFFEF
:1017900088B0CDF800E01C48FFF7B6FEFFF7FCFD6F
:1017A00010B9FFF7CDFDF9E71848FFF7DBFD01A8F9
:1017B000042212B21649FFF73FFE01AA511D002074
:1017C00008701046FFF74AFE1249088080B2800870
:1017D000088001A9FFF708FE0F480121FFF7C4FEAA
:1017E00001A80221FFF7C0FE41F6FF27C0F2B707AC
:1017F0007F1EFDD100BF00BF00BF00BF00BFDDF8EE
:1018000000E008B0704700BFEA1B00002200002083
:101810002D0000202201002013000020FFFFFFFF09
:1018200081B0CDF800E0002201210020FFF7BAFDD1
:10183000012207210020FFF7B5FD0C4801460020DA
:10184000FFF7F0FE42F280512020FFF703FF44F63D
:101850007F77C0F2120700BF00BF7F1EFDD100BF1F
:1018600000BF00BFDDF800E001B07047B81B00000A
:1018700081B002490248016001B07047401901007F
:101880002801002081B0FEE701B0704700F00EF89B
:1018900000F0EEF9FFF7ECFF00F0AAF9FFF7C0FF48
:1018A000FFF75AFFFFF774FFFCE7FEE781B0CDF8C2
:1018B00000E0464A464B474C47494BF68030814250
:1018C00006D94648006840F002014448016011E032
:1018D00045F6C050814206D94048006840F00101F9
:1018E0003E48016006E03D4801686FF00700014096
:1018F0003A480160FFF7DCFE39480360394804606C
:10190000394802EA00013948016002F0010040B1A3
:1019100019463648006800F00200002800D1F8E7B8
:1019200000E0194602F4803040B10B462F480068B1
:1019300000F40030002800D1F8E700E00B4602F088
:10194000805068B12948006840F080512748016004
:101950002648006800F00050002800D1F8E7FFE7B3
:1019600002F0806078B12148006840F080611F4833
:10197000016011461A461D48006800F0006000280A
:1019800000D1F8E701E011461A4601F0807070B10D
:101990001648006840F080711448016011461348F1
:1019A000006800F0007000B9F9E70A46FFE70C484C
:1019B000006800F00C01900000F00C00814200D0A3
:1019C000F5E7DDF800E001B0704700BF81000105D8
:1019D00002841D004406010040190100002002405D
:1019E000041002402C100240FFFF0F0000100240C4
:1019F0003800000039000000FFFFFFFF000000007A
:101A000000000000000000000000000000000000D6
:101A100000000000000000000000000000000000C6
:101A2000000000001808000018000000000000007E
:101A300000000000000000000000000000000000A6
:101A40000000000000000000000000000000000096
:101A50000000000000000000300014083500000005
:101A600036000000FFFFFFFF000000000000000044
:101A70000000000000000000000000000000000066
:101A80000000000000000000000000000000000056
:101A9000180800001800000000000000000000000E
:101AA0000000000000000000000000000000000036
:101AB0000000000000000000000000000000000026
:101AC0000000000008000008090000000A000000F3
:101AD000FFFFFFFF0000000000000000000000000A
:101AE00000000000000000000000000000000000F6
:101AF00000000000000000000000000018080000C6
:101B000018000000000000000000000000000000BD
:101B100000000000000000000000000000000000C5
:101B200000000000000000000000000000000000B5
:101B300004000000D90D0000910D00009D0D000073
:101B4000790D0000850D0000C10D0000CD0D0000D5
:101B5000A90D0000B50D0000A5120000291300001A
:101B60001D130000FFFFFFFFFFFFFFFFFFFFFFFF51
:101B7000FFFFFFFFFFFFFFFFFFFFFFFFFFFFFFFF75
:101B8000FFFFFFFFFFFFFFFFFFFFFFFFFFFFFFFF65
:101B9000FFFFFFFF4F424420494920696E69746985
:101BA000616C697A65640043757272656E74205267
:101BB000504D203A2000FFFF80250000000000006B
:101BC000000000000000000000000000010203040B
:101BD0000102030406070809510900002109000059
:101BE000D90800004154535030003031304300FFD9
:101BF00000B5DFF814B0DFF814A0DFF814C0FFF769
:101C00004DFD00BD704700BF0000002022000020F5
:101C1000941B0000FFFFFFFFFFFFFFFFFFFFFFFF21
:101C2000FFFFFFFFFFFFFFFFFFFFFFFFFFFFFFFFC4
:101C3000FFFFFFFFFFFFFFFFFFFFFFFFFFFFFFFFB4
:101C4000FFFFFFFFFFFFFFFFFFFFFFFFFFFFFFFFA4
:101C5000FFFFFFFFFFFFFFFFFFFFFFFFFFFFFFFF94
:101C6000FFFFFFFFFFFFFFFFFFFFFFFFFFFFFFFF84
:101C700000B5DFF810B0DFF810A0FFF74FFD00BD92
:101C8000704700BF0000002054020020FFFFFFFF4C
:00000001FF
